:020000040800F2
:10000000980C00201102000871020008D3130008A8
:10001000710200087102000871020008000000006F
:100020000000000000000000000000007102000855
:10003000710200080000000071020008710200084F
:1000400071020008710200087102000871020008C4
:1000500071020008710200087102000871020008B4
:1000600071020008710200087102000871020008A4
:100070007102000871020008710200087102000894
:100080007102000871020008710200087102000884
:100090007102000871020008710200087102000874
:1000A0007102000871020008710200087102000864
:1000B0007102000871020008710200087102000854
:1000C0007102000871020008710200087102000844
:1000D0007102000871020008710200087102000834
:1000E0007102000871020008710200087102000824
:1000F0007102000871020008710200087102000814
:100100007102000871020008710200087102000803
:1001100071020008710200087102000871020008F3
:10012000D105000871020008710200087102000880
:1001300071020008710200087102000871020008D3
:1001400071020008710200087102000871020008C3
:1001500071020008710200087102000871020008B3
:1001600071020008710200087102000871020008A3
:100170007102000871020008710200087102000893
:10018000710200087102000880B582B000AF78608B
:10019000144B1B785A1CD1B2124A11701A467B6854
:1001A000D9B2114B99540F4B1B781A460E4B0021B4
:1001B00099540C4B1B7801330F2B05D87B680A2B05
:1001C00002D07B68002B0AD1064B00221A70064B26
:1001D00000221946042001F0F3F80346002B0837EB
:1001E000BD4680BD3C0400202C04002080B483B0B8
:1001F00000AF78600B467B807B88C3F308039AB21C
:100200007B689A8000BF0C37BD4680BC704700BF3A
:1002100080B582B000AF114B7B60114B3B6007E0B3
:100220003B681A1D3A607A68111D796012681A607D
:100230003B680C4A9342F3D30B480C494FF0000241
:100240008842B8BF40F8042BFADB01F0CDF800F08B
:1002500007FA00BF0837BD4680BD00BFD01A0008AE
:10026000000000202C0400202C0400209804002012
:1002700080B400AFFEE700BF80B58CB000AF0121B5
:100280004FF4807000F0CEFA07F12803184601F011
:100290007DF80E23BB62032387F82C3007F1280377
:1002A0001946474800F0E4FF07F12803184601F01B
:1002B0006DF80323BB62032387F82C3007F1280372
:1002C0001946404800F0D4FF07F12803184601F012
:1002D0005DF83623BB62032387F82C3007F128032F
:1002E0001946394800F0C4FF0121072000F07CFACC
:1002F00000233B6101233B7501237B750023BB6118
:100300000023FB6100233B62092387F8243007F1B7
:10031000100319462D4800F0A3FA00233B604FF468
:1003200040337B604FF48043BB600023FB603B465F
:10033000184600F0E9FA012000F02AFB022301220E
:100340000121224800F040FB0223022202211F4823
:1003500000F03AFB0223032203211C4800F034FB87
:10036000022304220821194800F02EFB0223052253
:100370000921164800F028FB022306220B2113480E
:1003800000F022FB022307220C21104800F01CFB86
:10039000022308220E210D4800F016FB0223092239
:1003A00010210A4800F010FB0121084800F0D4FA9F
:1003B0000121064800F0E2FB00BF3037BD4680BD9A
:1003C00000000240000402400008024000200140FA
:1003D00080B590B000AF01214FF4800000F004FA26
:1003E000284801F0A9F800237B60274BBB60274B0E
:1003F000FB6000233B6109237B610023BB614FF459
:100400008063FB614FF400633B624FF400537B62F7
:100410004FF48073BB624FF40033FB6200233B63F5
:100420000023BB630023FB630021164801F0ACF9F5
:1004300000BF144B1B6803F00103002BF9D13B1DD7
:100440001946104801F04AF911490E4801F0B8F96F
:10045000012210210B4801F0E1F90121094801F0C6
:1004600093F938233B7000237B700023BB7001237A
:10047000FB703B46184601F08FFA00BF4037BD467F
:1004800080BD00BF106402404C2401406C04002079
:100490003D00801080B582B000AF00237B6042E059
:1004A000244A7B6832F81330002B0AD0214A7B683B
:1004B00032F81330013B99B21E4A7B6822F81310C0
:1004C0002EE01D4A7B6832F813309BB2C82B1ED930
:1004D000194A7B6832F813309AB218497B6831F8B0
:1004E00013309A4213D2144A7B6832F813309BB20D
:1004F0001946786800F024F80E4A7B680A2122F831
:1005000013100E4A7B68002122F8131008E00A4AF3
:100510007B6832F8133099B2084A7B6822F81310CE
:100520007B6801337B607B68082BB9DD00BF08372F
:10053000BD4680BD440400206C0400205804002007
:1005400080B582B000AF7860396000BF1D4B1B885A
:100550009BB203F04003002BF8D01B4A7B68134486
:100560001B7863F06F03DBB29BB219461548FFF7A7
:100570003DFE00BF134B1B889BB203F04003002BD2
:10058000F8D0124A7B6813441B789BB203F07F03B8
:100590009BB219460B48FFF729FE00BF094B1B8889
:1005A0009BB203F04003002BF8D03B689BB203F0F2
:1005B0007F039BB219460348FFF718FE00BF0837B8
:1005C000BD4680BD00100140800400208C04002046
:1005D00080B500AF1C491D4801F05AF90346002BB5
:1005E00006D01B4B01221A601749184801F0A6F9E2
:1005F0001849164801F04CF90346002B06D0144B5D
:1006000000221A601449114801F098F912490F4864
:1006100001F03EF90346002B06D00D4B00221A6074
:100620000D490A4801F08AF90C49084801F030F9EF
:100630000346002B06D0064B00221A6007490348E8
:1006400001F07CF900BF80BD2080001010640240E2
:10065000400400201040001008200010010000900D
:1006600080B584B000AF0023FB60554B21221A8077
:10067000534B22225A80524B23229A80504B2422E1
:10068000DA804F4B25221A814D4B26225A81FFF7E3
:10069000F3FDFFF79DFE4B4800F060FA4A4B0A223B
:1006A0001A70494B0A225A70474B0A229A70464BDD
:1006B0000A22DA70444B0A221A71434B0A225A71F9
:1006C000414B0A229A71404B0A22DA713E4B0A22B0
:1006D0001A723D4B0A225A723C4B26221A703B4B2F
:1006E00032225A70394B30229A70384B2F22DA70EE
:1006F000364B2D221A71354B2B225A71334B29223E
:100700009A71324B3122DA71304B33221A722F4BED
:1007100039225A722E4800F055FD00BF2D4B1B6840
:10072000002BFBD02C4800F04DFD0023BB600DE0FA
:10073000BB68591C224ABB6832F813309BB21A4678
:10074000264800F02BFDBB680133BB60BB68082B5B
:10075000EEDD204B1B68012BFBD1FFF79BFE1948F8
:1007600000F0FCF91B4B00221A60FB680133FB60B0
:10077000F9681B4B83FB0123DA10CB17D21A1346FF
:100780009B0013449A001344CA1A002AE1D112486C
:1007900000F018FD00237B600DE07B68591C084ABF
:1007A0007B6832F813309BB21A460E4800F0F6FC14
:1007B0007B6801337B607B68082BEEDDC9E700BFF7
:1007C0006C04002000200140800400208C040020E4
:1007D000581A000840040020681A0008881A000807
:1007E0001F85EB519C1A000880B483B000AF78607D
:1007F0000B46FB70FB78002B06D00949084B1A6B9F
:100800007B6813430B6306E00549054B1A6B7B6855
:10081000DB4313400B6300BF0C37BD4680BC704701
:100820000038024080B483B000AF78600B46FB70A4
:10083000FB78002B06D00949084B5A6C7B681343A0
:100840004B6406E00549054B5A6C7B68DB4313405B
:100850004B6400BF0C37BD4680BC70470038024077
:1008600080B485B000AF786039600023FB6000235E
:10087000FB727B685B68FB60FB6823F0407323F4CA
:100880008073FB603B681B791A023B681B6813434B
:10089000FA681343FB607B68FA685A607B689B6860
:1008A000FB60FA68174B1340FB603B681A693B68B2
:1008B000DB681A433B689B681A433B685B795B00C3
:1008C0001343FA681343FB607B68FA689A607B689D
:1008D000DB6AFB60FB6823F47003FB603B681B7DF5
:1008E000013BDAB2FB7A1343FB72FB7A1B05FA6811
:1008F0001343FB607B68FA68DA6200BF1437BD46B9
:1009000080BC7047FDF7FFC080B485B000AF786051
:100910000023FB600E4B5B68FB60FA680D4B1340D5
:10092000FB607B681A687B685B681A437B689B681E
:100930001A437B68DB681343FA681343FB60044A7D
:10094000FB68536000BF1437BD4680BC704700BFD2
:1009500000230140E030FCFF80B483B000AF78603A
:100960000B46FB70FB78002B06D07B689B6843F03E
:1009700001027B689A6005E07B689B6823F00102B6
:100980007B689A6000BF0C37BD4680BC704700BFD3
:1009900080B483B000AF0346FB71FB79002B06D017
:1009A000084A084B5B6843F40003536005E0054ABE
:1009B000044B5B6823F40003536000BF0C37BD4653
:1009C00080BC70470023014080B485B000AF7860E0
:1009D000084611461A460346FB700B46BB70134689
:1009E0007B700023FB600023BB60FB78092B23D9BD
:1009F0007B68DB68FB60FB78A3F10A0213465B00AF
:100A00001344072202FA03F3BB60BB68DB43FA68B6
:100A10001340FB607978FB78A3F10A0213465B0070
:100A2000134401FA03F3BB60FA68BB681343FB602D
:100A30007B68FA68DA601EE07B681B69FB60FA7805
:100A400013465B001344072202FA03F3BB60BB6842
:100A5000DB43FA681340FB607978FA7813465B0051
:100A6000134401FA03F3BB60FA68BB681343FB60ED
:100A70007B68FA681A61BB78062B21D87B685B6BB0
:100A8000FB60BB785A1E13469B0013441F2202FAD8
:100A900003F3BB60BB68DB43FA681340FB60F97883
:100AA000BB785A1E13469B00134401FA03F3BB6044
:100AB000FA68BB681343FB607B68FA685A6347E0D7
:100AC000BB780C2B21D87B681B6BFB60BB78DA1FD3
:100AD00013469B0013441F2202FA03F3BB60BB685A
:100AE000DB43FA681340FB60F978BB78DA1F1346E2
:100AF0009B00134401FA03F3BB60FA68BB6813431D
:100B0000FB607B68FA681A6322E07B68DB6AFB6043
:100B1000BB78A3F10D0213469B0013441F2202FA77
:100B200003F3BB60BB68DB43FA681340FB60F978F2
:100B3000BB78A3F10D0213469B00134401FA03F3A3
:100B4000BB60FA68BB681343FB607B68FA68DA62D3
:100B500000BF1437BD4680BC704700BF80B483B06F
:100B600000AF78607B689B6843F080427B689A6046
:100B700000BF0C37BD4680BC704700BF80B483B057
:100B800000AF78600B46FB70FB78002B06D07B68CB
:100B90009B6843F480727B689A6005E07B689B6881
:100BA00023F480727B689A6000BF0C37BD4680BC1E
:100BB000704700BF80B582B000AF0346FB71FB7980
:100BC0001846FFF7E1FA00BF0837BD4680BD00BFF9
:100BD00080B483B000AF78600B46FB707B68FA7816
:100BE0001A70012318460C37BD4680BC704700BF01
:100BF00080B485B000AF786039600023FB600AE004
:100C00007B685A1C7A603A68511C396012781A70F5
:100C1000FB680133FB603B681B78002BF0D1FB685D
:100C200018461437BD4680BC704700BF80B586B0FB
:100C300000AFF8607A603B600B46FB7200237B617B
:100C40007B68013B7B603B68092B1DD93B681D4AD3
:100C5000A2FB0323DB08F97A7A68F868FFF7E6FF5E
:100C600078617B69FA681344FB6010E0FB7A1946EF
:100C7000F868FFF7ADFFFB680133FB607B69013368
:100C80007B617B68013B7B607B68002BEEDC396815
:100C90000C4BA3FB0123DA0813469B0013445B00B3
:100CA000CA1AD3B23033DBB21946F868FFF790FFA7
:100CB00002467B6913447B617B6918461837BD4641
:100CC00080BD00BFCDCCCCCC80B586B000AFF86085
:100CD0007A603B600B46FB7200237B613B68002B14
:100CE00003DA3B685B423B6101E03B683B617B6848
:100CF000013B7B603B69092B1FD93B68002B0CDA59
:100D00003B692E4AA2FB0323DB085B42F97A7A682F
:100D1000F868FFF7D9FF78610AE03B69274AA2FB30
:100D20000323DB08F97A7A68F868FFF7CDFF78616A
:100D30007B69FA681344FB6025E03B68002B11DAFD
:100D40007B68013B7B600DE0FB7A1946F868FFF792
:100D50003FFFFB680133FB607B6901337B617B688C
:100D6000013B7B607B68002BEEDC3B68002B0ADAE2
:100D70002D21F868FFF72CFF02467B6913447B6145
:100D8000FB680133FB6039690C4BA3FB0123DA08D4
:100D900013469B0013445B00CA1AD3B23033DBB254
:100DA0001946F868FFF714FF02467B6913447B611C
:100DB0007B6918461837BD4680BD00BFCDCCCCCC72
:100DC00080B588B002AFF8607A601A460B46FB72B5
:100DD0001346BB7200237B617B68013B7B603B6AEF
:100DE0001B09002B20D03B6A1B09BA7AF97A0093C1
:100DF00013467A68F868FFF7E3FF02467B691344FD
:100E00007B617B69FA681344FB6010E0FB7A19464A
:100E1000F868FFF7DDFEFB680133FB607B69013397
:100E20007B617B68013B7B607B68002BEEDC3B6A6F
:100E300003F00F03092B0BD83B6ADBB203F00F035F
:100E4000DBB23033DBB21946F868FFF7C1FE19E0B8
:100E5000BB7A002B0BD03B6ADBB203F00F03DBB293
:100E60003733DBB21946F868FFF7B2FE0AE03B6A97
:100E7000DBB203F00F03DBB25733DBB21946F8687D
:100E8000FFF7A6FE7B6901337B617B691846183743
:100E9000BD4680BD80B58AB002AFF860B9607A60A7
:100EA0003B600023BB6100237B61FB68002B00F0EB
:100EB000FC80FB6800221A70F7E07B681B78252B0A
:100EC0000BD0FB685A1CFA607A68511C7960127862
:100ED0001A707B6901337B61E7E07B6801331B7823
:100EE000252B0BD1FB685A1CFA6025221A707B68EF
:100EF00002337B607B6901337B61D6E02023FB7783
:100F00000023BB777B6801337B607B681B78302BC9
:100F100014D13023FB777B6801337B600EE0BB7F0D
:100F20001A46920013445B00DAB27B681B781344C4
:100F3000DBB2303BBB777B6801337B607B681B781F
:100F40002F2B03D97B681B78392BE8D9BA7F7B69B3
:100F500013441A46BB689A4205D9BB68DAB27B696A
:100F6000DBB2D31ABB777B681B78583B202B00F28F
:100F70008E8001A252F823F0491000088F1000085B
:100F80008F1000088F1000088F1000088F100008C5
:100F90008F1000088F1000088F1000088F100008B5
:100FA0008F10000879100008FD0F00088F1000084E
:100FB0008F1000088F1000088F100008FD0F000828
:100FC0008F1000088F1000088F1000088F10000885
:100FD0008F1000088F1000088F1000088F10000875
:100FE0008F100008651000088F1000081510000809
:100FF0008F1000088F1000082D100008B87F3B6884
:101000001A1D3A601B68F97F0246F868FFF75CFE1C
:10101000B8613FE0B87F3B681A1D3A601B68F97FF2
:101020000246F868FFF702FEB86133E0B87F3B681C
:101030001A1D3A601B68F97F009300230246F86886
:10104000FFF7BEFEB86125E0B87F3B681A1D3A6025
:101050001B68F97F009301230246F868FFF7B0FE92
:10106000B86117E03B681A1D3A601B681946F868BA
:10107000FFF7BEFDB8610DE03B681A1D3A601B68C2
:10108000DBB21946F868FFF7A3FDB86102E04FF044
:10109000FF3325E07B6801337B60BB69FA6813444A
:1010A000FB607A69BB6913447B617B681B78002B0A
:1010B00004D07A69BB689A42FFF4FFAE7A69BB68D4
:1010C0009A4203D2FB6800221A7008E0FB68013BD9
:1010D000FB60FB6800221A707B69013B7B617B69C6
:1010E00018462037BD4680BD80B584B000AFF8609B
:1010F000B9607A607B68BA686421F868FFF7CAFE55
:10110000034618461037BD4680BD00BFB0B5A6B037
:1011100000AFF860B9607A60144B07F110041D4607
:101120000FCD0FC40FCD0FC42B68236007F134031C
:101130007A68B9681846FFF7D7FF0346632B09DDC5
:101140000B4B1B68DA6807F110031146184600F0D4
:101150006BF8FEE707F13403F968184600F064F80D
:10116000034618469837BD46B0BD00BFAC1A00080C
:101170002804002080B582B000AF78603960064B4B
:101180001B689B683A6879681846FFF7BFFF0346FB
:1011900018460837BD4680BD280400200FB480B52E
:1011A00082B000AF07F114033B6039683869FFF77C
:1011B000E1FF78607B6818460837BD46BDE880408F
:1011C00004B0704780B582B000AF7860054B1B68F3
:1011D0009B681946786800F027F8034618460837D8
:1011E000BD4680BD2804002080B582B000AF786085
:1011F00039600C4B1B689A683B689A4205D0094BD2
:101200001B68DA683B689A4206D17B68DBB21846F5
:10121000FFF7D0FC7B6801E04FF0FF33184608373A
:10122000BD4680BD2804002080B584B000AF786042
:1012300039600023FB6012E07B681B783968184630
:10124000FFF7D2FF0346B3F1FF3F02D14FF0FF3368
:101250000AE0FB680133FB607B6801337B607B68DD
:101260001B78002BE8D1FB6818461037BD4680BDBF
:1012700080B487B000AF7860396000237B610023C1
:101280003B610023FB6000237B6176E001227B69E8
:1012900002FA03F33B613B681A683B691340FB6049
:1012A000FA683B699A4265D17B681A687B695B0082
:1012B000032101FA03F3DB431A407B681A607B6861
:1012C0001A683B681B7919467B695B0001FA03F3D6
:1012D0001A437B681A603B681B79012B03D03B687B
:1012E0001B79022B2ED17B689A687B695B000321F6
:1012F00001FA03F3DB431A407B689A607B689A68C3
:101300003B685B7919467B695B0001FA03F31A437A
:101310007B689A607B685A687B699BB2012101FAFD
:1013200003F3DB431A407B685A607B685A683B686A
:101330009B7919467B699BB201FA03F39BB21A436E
:101340007B685A607B68DA687B699BB25B0003212B
:1013500001FA03F3DB431A407B68DA607B68DA68E2
:101360003B68DB7919467B695B0001FA03F31A439A
:101370007B68DA607B6901337B617B690F2B85D9E0
:1013800000BF1C37BD4680BC704700BF80B483B02F
:1013900000AF78607B684FF6FF721A607B680022AE
:1013A0001A717B6800225A717B6800229A717B68EF
:1013B0000022DA7100BF0C37BD4680BC704700BF09
:1013C000ABBE01E000207047002A00D01060012071
:1013D0007047069801884BF6AB62914202D1043007
:1013E00006907047FEE7000080B500AF124A124B2E
:1013F0001B6843F0010313600F4B00229A600E4AF2
:101400000D4B1B6823F0847323F4803313600A4B65
:101410000A4A5A60084A084B1B6823F48023136069
:10142000054B0022DA6000F00DF8054B4FF000622A
:101430009A6000BF80BD00BF003802401030002419
:1014400000ED00E080B483B000AF00237B60002398
:101450003B60354A344B1B6843F480331360324B96
:101460001B6803F400333B607B6801337B603B689F
:10147000002B03D17B68B3F5A06FF0D12A4B1B681A
:1014800003F40033002B02D001233B6001E0002372
:101490003B603B68012B42D1234A234B1B6C43F03A
:1014A00080531364214A214B1B6843F4804313602B
:1014B0001D4A1D4B9B6893601B4A1B4B9B6843F462
:1014C00000439360184A184B9B6843F4A053936001
:1014D000154B174A5A60144A134B1B6843F080732C
:1014E000136000BF104B1B6803F00073002BF9D092
:1014F000104B40F205621A600B4A0B4B9B6823F0BD
:1015000003039360084A084B9B6843F0020393600F
:1015100000BF054B9B6803F00C03082BF9D100BFFB
:101520000C37BD4680BC7047003802400070004058
:1015300008544007003C024080B483B000AF78609C
:101540007B681B6823F001027B681A607B680022BD
:101550001A607B6800225A607B6800229A607B6870
:101560000022DA607B6800221A617B6821225A61BE
:101570007B68454A934203D1444B3D229A607EE00A
:101580007B68434A934204D1404B4FF474629A60A3
:1015900075E07B683F4A934204D13C4B4FF4741290
:1015A0009A606CE07B683C4A934204D1374B4FF021
:1015B00074629A6063E07B68384A934203D1334B8C
:1015C000374ADA605BE07B68364A934203D12F4B9F
:1015D000354ADA6053E07B68344A934203D12B4B9F
:1015E000334ADA604BE07B68324A934204D1274B9E
:1015F0004FF03D52DA6042E07B682F4A934203D1BC
:101600002E4B3D229A603AE07B682D4A934204D1EA
:101610002A4B4FF474629A6031E07B68294A934206
:1016200004D1264B4FF474129A6028E07B68264A56
:10163000934204D1214B4FF074629A601FE07B68A3
:10164000224A934203D11D4B154ADA6017E07B68AA
:101650001F4A934203D1194B134ADA600FE07B68AB
:101660001C4A934203D1154B114ADA6007E07B68AC
:10167000194A934203D1114B4FF03D52DA6000BF3B
:101680000C37BD4680BC70471060024000600240CD
:101690002860024040600240586002407060024092
:1016A0003D00002088600240400F0020A060024002
:1016B00000003D20B8600240106402400064024017
:1016C0002864024040640240586402407064024052
:1016D00088640240A0640240B864024080B485B0CF
:1016E00000AF786039600023FB607B681B68FB609B
:1016F000FA68244B1340FB603B681A683B68DB6860
:101700001A433B685B691A433B689B691A433B6811
:10171000DB691A433B681B6A1A433B685B6A1A43DE
:101720003B689B6A1A433B685B6B1A433B689B6B45
:101730001343FA681343FB607B68FA681A607B689E
:101740005B69FB60FB6823F00703FB603B68DA6AB8
:101750003B681B6B1343FA681343FB607B68FA68B2
:101760005A613B681A697B685A603B685A687B68B3
:101770009A603B689A687B68DA6000BF1437BD46A0
:1017800080BC70473F801CF080B483B000AF7860AD
:101790000B46FB70FB78002B06D07B681B6843F080
:1017A00001027B681A6005E07B681B6823F0010278
:1017B0007B681A6000BF0C37BD4680BC704700BF15
:1017C00080B485B000AF786039607B68104A93427E
:1017D00002D8104BFB6001E00F4BFB603B6803F04D
:1017E0000053002B07D03B6823F0F02323F0821333
:1017F000FA68D36006E03B6823F0F02323F08213FD
:10180000FA68936000BF1437BD4680BC704700BFC4
:101810000F640240006002400064024080B485B062
:1018200000AFF860B9601346FB71BB6803F080033A
:10183000002B0FD0FB79002B06D0FB685B6943F0CF
:101840008002FB685A6105E0FB685B6923F0800257
:10185000FB685A61BB68802B14D0FB79002B08D041
:10186000FB681A68BB6803F01E031A43FB681A6022
:1018700008E0FB681A68BB6803F01E03DB431A40EC
:10188000FB681A6000BF1437BD4680BC704700BFBC
:1018900080B487B000AF786039600023FB75002307
:1018A000FB600023BB607B68214A934202D8214B36
:1018B0003B6101E0204B3B613B6823F0F02323F0C8
:1018C000C313002B0AD03B68DB0A03F01E03FB6046
:1018D0007B681A68FB681340BB6004E07B685B6947
:1018E00003F08003BB603B6803F00053002B03D080
:1018F0003B695B68FB6002E03B691B68FB60FB685F
:1019000023F0F02323F08213FB60FA683B68134056
:10191000002B05D0BB68002B02D00123FB7501E032
:101920000023FB75FB7D18461C37BD4680BC704705
:101930000F640240006002400064024080B485B041
:1019400000AF786039607B68104A934202D8104B30
:10195000FB6001E00F4BFB603B6803F00053002B82
:1019600007D03B6823F0F02323F08213FA68D3609A
:1019700006E03B6823F0F02323F08213FA689360BB
:1019800000BF1437BD4680BC704700BF0F640240E3
:10199000006002400064024080B485B000AF78600F
:1019A0000023FB730023BB730F237B737B68DB78FF
:1019B000002B38D0264BDB68DB4303F4E0631B0AC3
:1019C000FB73FB7BC3F10403BB737A7BFB7B42FAA3
:1019D00003F37B737B685B781A46BB7B02FA03F3E5
:1019E000FB737B689A787B7B1340DAB2FB7B1343F3
:1019F000FB73FB7B1B01FB73164A7B681B7813444C
:101A0000FA7B83F80023134A7B681B785B09DBB2FF
:101A100018467B681B7803F01F03012101FA03F3CA
:101A200042F820300FE00B497B681B785B09DBB282
:101A300018467B681B7803F01F0301229A4000F1CF
:101A4000200341F8232000BF1437BD4680BC7047F7
:101A500000ED00E000E100E048656C6C6F20746808
:101A600065726521000000005363616E20636F6D35
:101A7000706C6574650A4144432076616C756573CA
:101A8000206172653A0000004368616E6E656C20EB
:101A90002564203D2025640A000000004368616E33
:101AA000202564203D2025640A00000073746469C9
:101AB0006F2E633A20696E637265617365204D41D4
:101AC000585F535452494E475F53495A450A0D00D7
:101AD0000000000000000000010000000000000005
:101AE00000000000000000000000000000000000F6
:101AF00000000000000000000000000000000000E6
:101B000000000000000000000000000000000000D5
:101B100000000000000000000000000000000000C5
:0C1EF000000000000000000000000020C6
:0400000508000000EF
:00000001FF
